{
  "contractName": "NewVerifier",
  "abi": [
    {
      "constant": false,
      "inputs": [
        {
          "name": "a",
          "type": "uint256[2]"
        },
        {
          "name": "b",
          "type": "uint256[2][2]"
        },
        {
          "name": "c",
          "type": "uint256[2]"
        },
        {
          "name": "input",
          "type": "uint256[2]"
        }
      ],
      "name": "verifyTx",
      "outputs": [
        {
          "name": "r",
          "type": "bool"
        }
      ],
      "payable": false,
      "stateMutability": "nonpayable",
      "type": "function"
    }
  ],
  "bytecode": "0x608060405234801561001057600080fd5b506101df806100206000396000f3fe608060405234801561001057600080fd5b506004361061002b5760003560e01c8063621e9ec014610030575b600080fd5b61018f600480360361014081101561004757600080fd5b8101908080604001906002806020026040519081016040528092919082600260200280828437600081840152601f19601f82011690508083019250505050505091929192908060800190600280602002604051908101604052809291906000905b828210156100fc578382604002016002806020026040519081016040528092919082600260200280828437600081840152601f19601f820116905080830192505050505050815260200190600101906100a8565b50505050919291929080604001906002806020026040519081016040528092919082600260200280828437600081840152601f19601f820116905080830192505050505050919291929080604001906002806020026040519081016040528092919082600260200280828437600081840152601f19601f82011690508083019250505050505091929192905050506101a9565b604051808215151515815260200191505060405180910390f35b600094935050505056fea165627a7a723058202621440e4d445b7cf59500d7b257f805dd7e69b66fcd7ec937e4357d2b3e63a80029",
  "source": "pragma solidity >=0.4.21 <0.6.0;\n\nimport \"./ERC721Mintable.sol\";\n\n// TODO define another contract named SolnSquareVerifier that inherits from your ERC721Mintable class\n\ncontract SolnSquareVerifier is ERC721MintableComplete {\n    NewVerifier private verifierContract;\n    using Counters for Counters.Counter;\n\n    constructor\n    (\n        address verifierContractAddress,\n        string memory name,\n        string memory symbol\n    )\n        public ERC721MintableComplete(name, symbol)\n     {\n        verifierContract = NewVerifier(verifierContractAddress);\n    }\n\n\n// TODO define a solutions struct that can hold an index & an address\n    struct Solution {\n        uint256 index;\n        address senderAddress;\n        bool isMinted;\n    }\n\n\n// TODO define an array of the above struct\n    bytes32[] solutionsList;\n\n\n// TODO define a mapping to store unique solutions submitted\n    mapping(bytes32 => Solution) private solutionsSubmitted; \n\n    Counters.Counter private solutionsCount;\n\n// TODO Create an event to emit when a solution is added\n    event SolutionAdded(bytes32 solutionKey, address senderAddress);\n    event VerifiedTokenMinted(address to, uint256 tokenID);\n\n// TODO Create a function to add the solutions to the array and emit the event\n    function addSolution \n    (\n        uint[2] memory a,\n        uint[2][2] memory b,\n        uint[2] memory c,\n        uint[2] memory input\n    ) \n    public \n    {\n        bytes32 solutionKey = keccak256(abi.encodePacked(a, b, c, input));\n        require(solutionsSubmitted[solutionKey].index == 0, \"Solution already exists\");\n\n        solutionsSubmitted[solutionKey] = Solution({\n            index: solutionsSubmitted[solutionKey].index,\n            senderAddress: msg.sender,\n            isMinted: false\n        });\n\n        solutionsCount.increment();\n        emit SolutionAdded(solutionKey, msg.sender);\n    }\n\n\n// TODO Create a function to mint new NFT only after the solution has been verified\n//  - make sure the solution is unique (has not been used before)\n//  - make sure you handle metadata as well as tokenSuplly\n\n    function mintWhenVerified \n    (\n        address to,\n        uint256 tokenId,\n        uint[2] memory a,\n        uint[2][2] memory b,\n        uint[2] memory c,\n        uint[2] memory input\n    ) \n        public\n    {\n        bytes32 solutionKey = keccak256(abi.encodePacked(a, b, c, input));\n        require(solutionsSubmitted[solutionKey].isMinted == false, \"Solution already minted\");\n        addSolution(a, b, c, input);\n        super.mint(to, tokenId);\n        solutionsSubmitted[solutionKey].isMinted = true;\n        emit VerifiedTokenMinted(to, tokenId);\n    }\n\n}\n\n// TODO define a contract call to the zokrates generated solidity contract <Verifier> or <renamedVerifier>\n\ncontract NewVerifier {\n     function verifyTx(\n            uint[2] memory a,\n            uint[2][2] memory b,\n            uint[2] memory c,\n            uint[2] memory input\n        ) public returns (bool r) {\n    }\n}\n\n\n  \n\n\n\n\n\n\n\n\n\n\n\n\n\n\n\n\n\n\n\n\n\n\n\n\n\n\n",
  "sourcePath": "/Users/afopefoluwaojo/code/blochain-captsone/eth-contracts/contracts/SolnSquareVerifier.sol",
  "compiler": {
    "name": "solc",
    "version": "0.5.5+commit.47a71e8f.Emscripten.clang"
  },
  "schemaVersion": "3.2.3",
  "updatedAt": "2020-08-25T15:00:04.180Z",
  "devdoc": {
    "methods": {}
  },
  "userdoc": {
    "methods": {}
  }
}